{
  "contractName": "CrowdFunding",
  "abi": [
    {
      "anonymous": false,
      "inputs": [
        {
          "indexed": false,
          "internalType": "string",
          "name": "projectId",
          "type": "string"
        },
        {
          "indexed": false,
          "internalType": "string",
          "name": "name",
          "type": "string"
        },
        {
          "indexed": false,
          "internalType": "string",
          "name": "description",
          "type": "string"
        },
        {
          "indexed": false,
          "internalType": "uint256",
          "name": "fundraisingGoal",
          "type": "uint256"
        }
      ],
      "name": "ProjectCreated",
      "type": "event"
    },
    {
      "anonymous": false,
      "inputs": [
        {
          "indexed": false,
          "internalType": "string",
          "name": "projectId",
          "type": "string"
        },
        {
          "indexed": false,
          "internalType": "uint256",
          "name": "value",
          "type": "uint256"
        }
      ],
      "name": "ProjectFunded",
      "type": "event"
    },
    {
      "anonymous": false,
      "inputs": [
        {
          "indexed": false,
          "internalType": "string",
          "name": "id",
          "type": "string"
        },
        {
          "indexed": false,
          "internalType": "enum CrowdFunding.FundraisingState",
          "name": "state",
          "type": "uint8"
        }
      ],
      "name": "ProjectStateChanged",
      "type": "event"
    },
    {
      "inputs": [
        {
          "internalType": "string",
          "name": "",
          "type": "string"
        },
        {
          "internalType": "uint256",
          "name": "",
          "type": "uint256"
        }
      ],
      "name": "contributions",
      "outputs": [
        {
          "internalType": "address",
          "name": "contributor",
          "type": "address"
        },
        {
          "internalType": "uint256",
          "name": "value",
          "type": "uint256"
        }
      ],
      "stateMutability": "view",
      "type": "function"
    },
    {
      "inputs": [
        {
          "internalType": "uint256",
          "name": "",
          "type": "uint256"
        }
      ],
      "name": "projects",
      "outputs": [
        {
          "internalType": "string",
          "name": "id",
          "type": "string"
        },
        {
          "internalType": "string",
          "name": "name",
          "type": "string"
        },
        {
          "internalType": "string",
          "name": "description",
          "type": "string"
        },
        {
          "internalType": "address payable",
          "name": "author",
          "type": "address"
        },
        {
          "internalType": "enum CrowdFunding.FundraisingState",
          "name": "state",
          "type": "uint8"
        },
        {
          "internalType": "uint256",
          "name": "funds",
          "type": "uint256"
        },
        {
          "internalType": "uint256",
          "name": "fundraisingGoal",
          "type": "uint256"
        }
      ],
      "stateMutability": "view",
      "type": "function"
    },
    {
      "inputs": [
        {
          "internalType": "string",
          "name": "id",
          "type": "string"
        },
        {
          "internalType": "string",
          "name": "name",
          "type": "string"
        },
        {
          "internalType": "string",
          "name": "description",
          "type": "string"
        },
        {
          "internalType": "uint256",
          "name": "fundraisingGoal",
          "type": "uint256"
        }
      ],
      "name": "createProject",
      "outputs": [],
      "stateMutability": "nonpayable",
      "type": "function"
    },
    {
      "inputs": [
        {
          "internalType": "uint256",
          "name": "projectIndex",
          "type": "uint256"
        }
      ],
      "name": "fundProject",
      "outputs": [],
      "stateMutability": "payable",
      "type": "function"
    },
    {
      "inputs": [
        {
          "internalType": "enum CrowdFunding.FundraisingState",
          "name": "newState",
          "type": "uint8"
        },
        {
          "internalType": "uint256",
          "name": "projectIndex",
          "type": "uint256"
        }
      ],
      "name": "changeProjectState",
      "outputs": [],
      "stateMutability": "nonpayable",
      "type": "function"
    }
  ],
  "bytecode": "0x608060405234801561001057600080fd5b50611e5b806100206000396000f3fe60806040526004361061004a5760003560e01c8063107046bd1461004f5780631ca73896146100925780636c563abe146100bb5780637f3fcdd9146100d7578063d14ce3b914610115575b600080fd5b34801561005b57600080fd5b5061007660048036038101906100719190611310565b61013e565b604051610089979695949392919061149d565b60405180910390f35b34801561009e57600080fd5b506100b960048036038101906100b49190611586565b610355565b005b6100d560048036038101906100d09190611310565b610622565b005b3480156100e357600080fd5b506100fe60048036038101906100f9919061177f565b610c87565b60405161010c9291906117fc565b60405180910390f35b34801561012157600080fd5b5061013c6004803603810190610137919061184a565b610cfe565b005b6000818154811061014e57600080fd5b9060005260206000209060060201600091509050806000018054610171906118b9565b80601f016020809104026020016040519081016040528092919081815260200182805461019d906118b9565b80156101ea5780601f106101bf576101008083540402835291602001916101ea565b820191906000526020600020905b8154815290600101906020018083116101cd57829003601f168201915b5050505050908060010180546101ff906118b9565b80601f016020809104026020016040519081016040528092919081815260200182805461022b906118b9565b80156102785780601f1061024d57610100808354040283529160200191610278565b820191906000526020600020905b81548152906001019060200180831161025b57829003601f168201915b50505050509080600201805461028d906118b9565b80601f01602080910402602001604051908101604052809291908181526020018280546102b9906118b9565b80156103065780601f106102db57610100808354040283529160200191610306565b820191906000526020600020905b8154815290600101906020018083116102e957829003601f168201915b5050505050908060030160009054906101000a900473ffffffffffffffffffffffffffffffffffffffff16908060030160149054906101000a900460ff16908060040154908060050154905087565b60008111610398576040517f08c379a000000000000000000000000000000000000000000000000000000000815260040161038f9061195d565b60405180910390fd5b60006040518060e0016040528089898080601f016020809104026020016040519081016040528093929190818152602001838380828437600081840152601f19601f82011690508083019250505050505050815260200187878080601f016020809104026020016040519081016040528093929190818152602001838380828437600081840152601f19601f82011690508083019250505050505050815260200185858080601f016020809104026020016040519081016040528093929190818152602001838380828437600081840152601f19601f8201169050808301925050505050505081526020013373ffffffffffffffffffffffffffffffffffffffff168152602001600060018111156104b3576104b2611417565b5b8152602001600081526020018381525090506000819080600181540180825580915050600190039060005260206000209060060201600090919091909150600082015181600001908051906020019061050d929190611223565b50602082015181600101908051906020019061052a929190611223565b506040820151816002019080519060200190610547929190611223565b5060608201518160030160006101000a81548173ffffffffffffffffffffffffffffffffffffffff021916908373ffffffffffffffffffffffffffffffffffffffff16021790555060808201518160030160146101000a81548160ff021916908360018111156105ba576105b9611417565b5b021790555060a0820151816004015560c0820151816005015550507f472657fb15180beb1548b31adee57ada1efa0dbd19d25622c6f1a27d0c97c2378888888888888860405161061097969594939291906119aa565b60405180910390a15050505050505050565b803373ffffffffffffffffffffffffffffffffffffffff166000828154811061064e5761064d611a0a565b5b906000526020600020906006020160030160009054906101000a900473ffffffffffffffffffffffffffffffffffffffff1673ffffffffffffffffffffffffffffffffffffffff1614156106d7576040517f08c379a00000000000000000000000000000000000000000000000000000000081526004016106ce90611aab565b60405180910390fd5b60008083815481106106ec576106eb611a0a565b5b90600052602060002090600602016040518060e0016040529081600082018054610715906118b9565b80601f0160208091040260200160405190810160405280929190818152602001828054610741906118b9565b801561078e5780601f106107635761010080835404028352916020019161078e565b820191906000526020600020905b81548152906001019060200180831161077157829003601f168201915b505050505081526020016001820180546107a7906118b9565b80601f01602080910402602001604051908101604052809291908181526020018280546107d3906118b9565b80156108205780601f106107f557610100808354040283529160200191610820565b820191906000526020600020905b81548152906001019060200180831161080357829003601f168201915b50505050508152602001600282018054610839906118b9565b80601f0160208091040260200160405190810160405280929190818152602001828054610865906118b9565b80156108b25780601f10610887576101008083540402835291602001916108b2565b820191906000526020600020905b81548152906001019060200180831161089557829003601f168201915b505050505081526020016003820160009054906101000a900473ffffffffffffffffffffffffffffffffffffffff1673ffffffffffffffffffffffffffffffffffffffff1673ffffffffffffffffffffffffffffffffffffffff1681526020016003820160149054906101000a900460ff16600181111561093657610935611417565b5b600181111561094857610947611417565b5b815260200160048201548152602001600582015481525050905060018081111561097557610974611417565b5b8160800151600181111561098c5761098b611417565b5b14156109cd576040517f08c379a00000000000000000000000000000000000000000000000000000000081526004016109c490611b3d565b60405180910390fd5b60003411610a10576040517f08c379a0000000000000000000000000000000000000000000000000000000008152600401610a0790611bcf565b60405180910390fd5b806060015173ffffffffffffffffffffffffffffffffffffffff166108fc349081150290604051600060405180830381858888f19350505050158015610a5a573d6000803e3d6000fd5b50348160a001818151610a6d9190611c1e565b915081815250508060008481548110610a8957610a88611a0a565b5b90600052602060002090600602016000820151816000019080519060200190610ab3929190611223565b506020820151816001019080519060200190610ad0929190611223565b506040820151816002019080519060200190610aed929190611223565b5060608201518160030160006101000a81548173ffffffffffffffffffffffffffffffffffffffff021916908373ffffffffffffffffffffffffffffffffffffffff16021790555060808201518160030160146101000a81548160ff02191690836001811115610b6057610b5f611417565b5b021790555060a0820151816004015560c0820151816005015590505060018160000151604051610b909190611cb0565b908152602001604051809103902060405180604001604052803373ffffffffffffffffffffffffffffffffffffffff16815260200134815250908060018154018082558091505060019003906000526020600020906002020160009091909190915060008201518160000160006101000a81548173ffffffffffffffffffffffffffffffffffffffff021916908373ffffffffffffffffffffffffffffffffffffffff1602179055506020820151816001015550507f925c00924682e835f48a31e5b83cb323934f40a811c5a8f44a662915035033c6816000015134604051610c7a929190611cc7565b60405180910390a1505050565b6001828051602081018201805184825260208301602085012081835280955050505050508181548110610cb957600080fd5b9060005260206000209060020201600091509150508060000160009054906101000a900473ffffffffffffffffffffffffffffffffffffffff16908060010154905082565b803373ffffffffffffffffffffffffffffffffffffffff1660008281548110610d2a57610d29611a0a565b5b906000526020600020906006020160030160009054906101000a900473ffffffffffffffffffffffffffffffffffffffff1673ffffffffffffffffffffffffffffffffffffffff1614610db2576040517f08c379a0000000000000000000000000000000000000000000000000000000008152600401610da990611d69565b60405180910390fd5b6000808381548110610dc757610dc6611a0a565b5b90600052602060002090600602016040518060e0016040529081600082018054610df0906118b9565b80601f0160208091040260200160405190810160405280929190818152602001828054610e1c906118b9565b8015610e695780601f10610e3e57610100808354040283529160200191610e69565b820191906000526020600020905b815481529060010190602001808311610e4c57829003601f168201915b50505050508152602001600182018054610e82906118b9565b80601f0160208091040260200160405190810160405280929190818152602001828054610eae906118b9565b8015610efb5780601f10610ed057610100808354040283529160200191610efb565b820191906000526020600020905b815481529060010190602001808311610ede57829003601f168201915b50505050508152602001600282018054610f14906118b9565b80601f0160208091040260200160405190810160405280929190818152602001828054610f40906118b9565b8015610f8d5780601f10610f6257610100808354040283529160200191610f8d565b820191906000526020600020905b815481529060010190602001808311610f7057829003601f168201915b505050505081526020016003820160009054906101000a900473ffffffffffffffffffffffffffffffffffffffff1673ffffffffffffffffffffffffffffffffffffffff1673ffffffffffffffffffffffffffffffffffffffff1681526020016003820160149054906101000a900460ff16600181111561101157611010611417565b5b600181111561102357611022611417565b5b81526020016004820154815260200160058201548152505090508360018111156110505761104f611417565b5b8160800151600181111561106757611066611417565b5b14156110a8576040517f08c379a000000000000000000000000000000000000000000000000000000000815260040161109f90611dd5565b60405180910390fd5b83816080019060018111156110c0576110bf611417565b5b908160018111156110d4576110d3611417565b5b8152505080600084815481106110ed576110ec611a0a565b5b90600052602060002090600602016000820151816000019080519060200190611117929190611223565b506020820151816001019080519060200190611134929190611223565b506040820151816002019080519060200190611151929190611223565b5060608201518160030160006101000a81548173ffffffffffffffffffffffffffffffffffffffff021916908373ffffffffffffffffffffffffffffffffffffffff16021790555060808201518160030160146101000a81548160ff021916908360018111156111c4576111c3611417565b5b021790555060a0820151816004015560c082015181600501559050507fd63742463cd36bb1dedcfdcdedc4f9a6fdeaf7c80d9e702884e6b373ecb51f1d816000015185604051611215929190611df5565b60405180910390a150505050565b82805461122f906118b9565b90600052602060002090601f0160209004810192826112515760008555611298565b82601f1061126a57805160ff1916838001178555611298565b82800160010185558215611298579182015b8281111561129757825182559160200191906001019061127c565b5b5090506112a591906112a9565b5090565b5b808211156112c25760008160009055506001016112aa565b5090565b6000604051905090565b600080fd5b600080fd5b6000819050919050565b6112ed816112da565b81146112f857600080fd5b50565b60008135905061130a816112e4565b92915050565b600060208284031215611326576113256112d0565b5b6000611334848285016112fb565b91505092915050565b600081519050919050565b600082825260208201905092915050565b60005b8381101561137757808201518184015260208101905061135c565b83811115611386576000848401525b50505050565b6000601f19601f8301169050919050565b60006113a88261133d565b6113b28185611348565b93506113c2818560208601611359565b6113cb8161138c565b840191505092915050565b600073ffffffffffffffffffffffffffffffffffffffff82169050919050565b6000611401826113d6565b9050919050565b611411816113f6565b82525050565b7f4e487b7100000000000000000000000000000000000000000000000000000000600052602160045260246000fd5b6002811061145757611456611417565b5b50565b600081905061146882611446565b919050565b60006114788261145a565b9050919050565b6114888161146d565b82525050565b611497816112da565b82525050565b600060e08201905081810360008301526114b7818a61139d565b905081810360208301526114cb818961139d565b905081810360408301526114df818861139d565b90506114ee6060830187611408565b6114fb608083018661147f565b61150860a083018561148e565b61151560c083018461148e565b98975050505050505050565b600080fd5b600080fd5b600080fd5b60008083601f84011261154657611545611521565b5b8235905067ffffffffffffffff81111561156357611562611526565b5b60208301915083600182028301111561157f5761157e61152b565b5b9250929050565b60008060008060008060006080888a0312156115a5576115a46112d0565b5b600088013567ffffffffffffffff8111156115c3576115c26112d5565b5b6115cf8a828b01611530565b9750975050602088013567ffffffffffffffff8111156115f2576115f16112d5565b5b6115fe8a828b01611530565b9550955050604088013567ffffffffffffffff811115611621576116206112d5565b5b61162d8a828b01611530565b935093505060606116408a828b016112fb565b91505092959891949750929550565b600080fd5b7f4e487b7100000000000000000000000000000000000000000000000000000000600052604160045260246000fd5b61168c8261138c565b810181811067ffffffffffffffff821117156116ab576116aa611654565b5b80604052505050565b60006116be6112c6565b90506116ca8282611683565b919050565b600067ffffffffffffffff8211156116ea576116e9611654565b5b6116f38261138c565b9050602081019050919050565b82818337600083830152505050565b600061172261171d846116cf565b6116b4565b90508281526020810184848401111561173e5761173d61164f565b5b611749848285611700565b509392505050565b600082601f83011261176657611765611521565b5b813561177684826020860161170f565b91505092915050565b60008060408385031215611796576117956112d0565b5b600083013567ffffffffffffffff8111156117b4576117b36112d5565b5b6117c085828601611751565b92505060206117d1858286016112fb565b9150509250929050565b60006117e6826113d6565b9050919050565b6117f6816117db565b82525050565b600060408201905061181160008301856117ed565b61181e602083018461148e565b9392505050565b6002811061183257600080fd5b50565b60008135905061184481611825565b92915050565b60008060408385031215611861576118606112d0565b5b600061186f85828601611835565b9250506020611880858286016112fb565b9150509250929050565b7f4e487b7100000000000000000000000000000000000000000000000000000000600052602260045260246000fd5b600060028204905060018216806118d157607f821691505b602082108114156118e5576118e461188a565b5b50919050565b7f66756e6472616973696e6720676f616c206d757374206265206772656174657260008201527f207468616e203000000000000000000000000000000000000000000000000000602082015250565b6000611947602783611348565b9150611952826118eb565b604082019050919050565b600060208201905081810360008301526119768161193a565b9050919050565b60006119898385611348565b9350611996838584611700565b61199f8361138c565b840190509392505050565b600060808201905081810360008301526119c581898b61197d565b905081810360208301526119da81878961197d565b905081810360408301526119ef81858761197d565b90506119fe606083018461148e565b98975050505050505050565b7f4e487b7100000000000000000000000000000000000000000000000000000000600052603260045260246000fd5b7f417320617574686f7220796f752063616e206e6f742066756e6420796f75722060008201527f6f776e2070726f6a656374000000000000000000000000000000000000000000602082015250565b6000611a95602b83611348565b9150611aa082611a39565b604082019050919050565b60006020820190508181036000830152611ac481611a88565b9050919050565b7f5468652070726f6a6563742063616e206e6f7420726563656976652066756e6460008201527f7300000000000000000000000000000000000000000000000000000000000000602082015250565b6000611b27602183611348565b9150611b3282611acb565b604082019050919050565b60006020820190508181036000830152611b5681611b1a565b9050919050565b7f46756e642076616c7565206d7573742062652067726561746572207468616e2060008201527f3000000000000000000000000000000000000000000000000000000000000000602082015250565b6000611bb9602183611348565b9150611bc482611b5d565b604082019050919050565b60006020820190508181036000830152611be881611bac565b9050919050565b7f4e487b7100000000000000000000000000000000000000000000000000000000600052601160045260246000fd5b6000611c29826112da565b9150611c34836112da565b9250827fffffffffffffffffffffffffffffffffffffffffffffffffffffffffffffffff03821115611c6957611c68611bef565b5b828201905092915050565b600081905092915050565b6000611c8a8261133d565b611c948185611c74565b9350611ca4818560208601611359565b80840191505092915050565b6000611cbc8284611c7f565b915081905092915050565b60006040820190508181036000830152611ce1818561139d565b9050611cf0602083018461148e565b9392505050565b7f596f75206e65656420746f206265207468652070726f6a65637420617574686f60008201527f7200000000000000000000000000000000000000000000000000000000000000602082015250565b6000611d53602183611348565b9150611d5e82611cf7565b604082019050919050565b60006020820190508181036000830152611d8281611d46565b9050919050565b7f4e6577207374617465206d75737420626520646966666572656e740000000000600082015250565b6000611dbf601b83611348565b9150611dca82611d89565b602082019050919050565b60006020820190508181036000830152611dee81611db2565b9050919050565b60006040820190508181036000830152611e0f818561139d565b9050611e1e602083018461147f565b939250505056fea2646970667358221220b598e8f32e38dbaf8420a218521cf3e6c30274539ec6837120ce254ac9d1135164736f6c634300080b0033",
  "immutableReferences": {},
  "source": "// SPDX-License-Identifier: GPL-3.0\n\npragma solidity >=0.7.0 <0.9.0;\n\ncontract CrowdFunding {\n    enum FundraisingState {\n        Opened,\n        Closed\n    }\n\n    struct Contribution {\n        address contributor;\n        uint256 value;\n    }\n\n    struct Project {\n        string id;\n        string name;\n        string description;\n        address payable author;\n        FundraisingState state;\n        uint256 funds;\n        uint256 fundraisingGoal;\n    }\n\n    Project[] public projects;\n    mapping(string => Contribution[]) public contributions;\n\n    event ProjectCreated(\n        string projectId,\n        string name,\n        string description,\n        uint256 fundraisingGoal\n    );\n\n    event ProjectFunded(string projectId, uint256 value);\n\n    event ProjectStateChanged(string id, FundraisingState state);\n\n    modifier isAuthor(uint256 projectIndex) {\n        require(\n            projects[projectIndex].author == msg.sender,\n            \"You need to be the project author\"\n        );\n        _;\n    }\n\n    modifier isNotAuthor(uint256 projectIndex) {\n        require(\n            projects[projectIndex].author != msg.sender,\n            \"As author you can not fund your own project\"\n        );\n        _;\n    }\n\n    function createProject(\n        string calldata id,\n        string calldata name,\n        string calldata description,\n        uint256 fundraisingGoal\n    ) public {\n        require(fundraisingGoal > 0, \"fundraising goal must be greater than 0\");\n        Project memory project = Project(\n            id,\n            name,\n            description,\n            payable(msg.sender),\n            FundraisingState.Opened,\n            0,\n            fundraisingGoal\n        );\n        projects.push(project);\n        emit ProjectCreated(id, name, description, fundraisingGoal);\n    }\n\n    function fundProject(uint256 projectIndex)\n        public\n        payable\n        isNotAuthor(projectIndex)\n    {\n        Project memory project = projects[projectIndex];\n        require(\n            project.state != FundraisingState.Closed,\n            \"The project can not receive funds\"\n        );\n        require(msg.value > 0, \"Fund value must be greater than 0\");\n        project.author.transfer(msg.value);\n        project.funds += msg.value;\n        projects[projectIndex] = project;\n\n        contributions[project.id].push(Contribution(msg.sender, msg.value));\n\n        emit ProjectFunded(project.id, msg.value);\n    }\n\n    function changeProjectState(FundraisingState newState, uint256 projectIndex)\n        public\n        isAuthor(projectIndex)\n    {\n        Project memory project = projects[projectIndex];\n        require(project.state != newState, \"New state must be different\");\n        project.state = newState;\n        projects[projectIndex] = project;\n        emit ProjectStateChanged(project.id, newState);\n    }\n}",
  "sourcePath": "/home/aitorzaldua/eth_crowfunding01/contracts/CrowFunding.sol",
  "compiler": {
    "name": "solc",
    "version": "0.8.11+commit.d7f03943.Emscripten.clang"
  },
  "schemaVersion": "3.4.4",
  "updatedAt": "2022-01-24T14:40:56.021Z",
  "devdoc": {
    "kind": "dev",
    "methods": {},
    "version": 1
  },
  "userdoc": {
    "kind": "user",
    "methods": {},
    "version": 1
  }
}